:020000040800F2
:1000000000040020390200083B0200083B020008FF
:100010003B0200083B0200083B0200083B020008CC
:100020003B0200083B0200083B020008F12D0008DB
:100030003B0200083B0200083B0200083B020008AC
:100040003B0200083B0200083B0200083B0200089C
:100050003B0200083B0200083B0200083B0200088C
:100060003B0200083B0200083B0200083B0200087C
:100070003B0200083B0200083B0200083B0200086C
:100080003B0200083B0200083B0200083B0200085C
:10009000312F00083B0200083B0200083B02000829
:1000A0003B0200083B0200083B0200083B0200083C
:1000B000F13300083B0200083B0200083B02000845
:1000C0003B0200083B0200083B0200083B0200081C
:1000D0003B020008513200083B0200083B020008C6
:1000E0003B0200083B0200083B0200083B020008FC
:1000F0003B0200083B0200083B0200083B020008EC
:100100003B0200083B0200083B0200083B020008DB
:100110003B0200083B0200083B0200083B020008CB
:100120003B0200083B0200083B0200083B020008BB
:100130003B0200083B0200083B0200083B020008AB
:100140003B0200083B0200083B0200083B0200089B
:100150003B0200083B0200083B0200083B0200088B
:1001600072B6274880F30888264880F30988264815
:100170004EF60851CEF200010860022080F3148888
:10018000BFF36F8F03F034FA02F092FE4FF0553058
:100190001E491B4A91423CBF41F8040BFAE71C4937
:1001A000184A91423CBF41F8040BFAE719491A4A30
:1001B0001A4B9A423EBF51F8040B42F8040BF8E781
:1001C00000201749174A91423CBF41F8040BFAE757
:1001D00003F0C6F903F004FA134C144DAC4203DAF1
:1001E00054F8041B8847F9E702F0A2F9104C114DAE
:1001F000AC4203DA54F8041B8847F9E703F0E8B986
:10020000000400200008002000000008000000207A
:1002100000040020CC38000800080020481000200E
:1002200048100020E8190020600100086001000863
:10023000600100086001000892E700F000F8FEE7A6
:100240002DE9F04FC1F80CD0C3689D46BDE8F08F92
:10025000002383F311882846A047002002F0D8FD30
:10026000FEE702F005FE00DFFEE70000024B01465C
:10027000186800F00BB800BF100C0020024B0146BC
:10028000186800F071BB00BF100C00202DE9F04F82
:1002900001F10B05162D83B0064623D8102900F274
:1002A000B68000F00DFB102518230220D14F3B44EF
:1002B0005C68A3F10802944200F0B6806368E168CC
:1002C00023F0030323445A68A56842F00102E96061
:1002D00030468D6008345A6000F0F4FA204603B0CE
:1002E000BDE8F08F35F0070500F19180A94200F2DA
:1002F0008E8000F0E5FAB5F5FC7FC0F090816B0AC6
:1003000000F08C80042B00F26081AB0903F139000E
:1003100003F1380CC100B74F39444C680839A14289
:1003200006D10CE0002A80F22981E468A14206D0BF
:10033000636823F003035A1B0F2AF3DD60463C6910
:10034000DFF8B4C264457AD0636823F003035A1B14
:100350000F2A00F37281002AC7E904CC80F263817E
:10036000B3F5007F80F00E810122DB089910134461
:100370008A40796857F833E007EBC3080A43A8F1CD
:100380000801C4E902E17A6047F83340CEF80C4036
:10039000012483109C40944257D8144206D120F087
:1003A00003006400144200F10400FAD007EBC00916
:1003B000CE468046DEF80C309E4507D111E1002A7A
:1003C00080F21E81DB689E4500F00B81596821F0A8
:1003D00003014A1B0F2AF2DD45F001083046D3E93C
:1003E00002E41D4442F00106C3F80480CEF80C403C
:1003F000C4F808E0C7E90455C5E902CC6E605A505C
:10040000009300F05FFA009B03F1080402E00C2364
:1004100000243360204603B0BDE8F08F4FF4007134
:1004200040204FF03F0C76E7DC68A34208BF023063
:100430007FF444AF3C69DFF8C0C1644584D1012436
:100440007A6883109C409442A7D9BC68636823F003
:100450000308A84503D3A8EB05030F2B7EDCDFF8C8
:100460009C91D7F80824D9F80030013204EB080A2F
:100470002B4400F02D8103F580530F3323F47F6B61
:100480002BF00F0B5946304602F092FC411C0246FD
:1004900000F0ED80824500F2E880D9F8041059445C
:1004A000C9F804100B4600F04981D7F8081401314F
:1004B0001BBFA2EB0A0A5344C7F80824C9F804304A
:1004C00012F0070300F01081C3F108010A44C3F5DC
:1004D000805193440831A1EB0B01C1F30B0A514643
:1004E00030460193009202F063FC421CDDE90023D8
:1004F00000F04981831A03EB0A0BD9F804104BF082
:1005000001035144BC42BA60C9F80410536000F0C2
:100510002181B8F10F0F40F21F814FF0050C636885
:10052000A8F10C0020F0070003F00103034304EBE3
:10053000000E0F286360CEE901CC00F22B81144637
:100540005368D9F82C208A42D9F8302038BFC9F82E
:100550002C108A4238BFC9F830108AE045F00102F9
:1005600043F00103254462603046BD6008346B608F
:1005700000F0A8F9204603B0BDE8F08F23445A6884
:10058000E168A1E65A0A042A69D9142A00F2BE8059
:1005900002F15C01C9005B3207EB010E7958AEF144
:1005A000080E8E4500F097804A6822F003029A42B6
:1005B00002D989688E45F7D1D1F80CE07A68C4E990
:1005C000021ECEF80840CC60E2E6142B5FD9542B13
:1005D00000F2A4802B0B03F16F0003F16E0CC1003D
:1005E00099E608F1010818F0030F0EF1080E7FF4E8
:1005F000E1AE57E000080020080800204810002065
:100600001C4619444A68DB6854F8085F42F001024E
:100610004A603046EB609D6000F054F9FAE6E80865
:1006200005F1080342E623445A68304642F00102CD
:100630005A60083400F046F9ECE645F0010E42F04D
:1006400001012544C4F804E03046C7E90455C5E972
:1006500002CC6960E25000F035F90834DAE69A0914
:1006600002F13901C900383296E7BC4260D0BC685B
:10067000636823F0030BAB45ABEB050302D30F2BF1
:100680003FF76CAF304600F01DF90024C2E603F1DD
:100690005C0003F15B0CC1003DE659F808394B459D
:1006A00040F0968010F0030F00F1FF30F5D17B6829
:1006B00023EA04037B6064009C423FF6C6AE1CB98B
:1006C000C3E6640008F104081C42FAD040466DE617
:1006D00003F1100BD6E64FF001087B68921008FA80
:1006E00002F21A437A606AE702EB0B014942C1F356
:1006F0000B0A514630460193009202F059FB431C0D
:10070000DDE900237FF4F6AE9A46F6E6542A26D8B1
:100710001A0B02F16F01C9006E323DE7B3F5AA7FF3
:1007200026D8EB0B03F1780003F1770CC100F2E55A
:10073000D9F804305B44C9F80430B6E6CAF30B00BC
:1007400000287FF4B2AE08EB0B03BC6843F0010352
:100750006360F6E61446F4E60123536092E7B2F5CF
:10076000AA7F21D8DA0B02F17801C900773213E7AA
:1007700040F25452934221D8AB0C03F17D0003F1B7
:100780007C0CC100C7E5083B9B44ABEB020B4FF070
:10079000000AB2E604F10801304600F0E5F8BC6852
:1007A000D9F804106368CCE640F254518A420BD861
:1007B0009A0C02F17D01C9007C32EDE64FF47E71A6
:1007C0007F204FF07E0CA6E54FF47E717E22E3E69B
:1007D0007B6870E7844641EA000313F0030349D1C4
:1007E000403A23D30B6803604B6843608B68836097
:1007F000CB68C3600B6903614B6943618B6983619B
:10080000CB69C3610B6A03624B6A43628B6A836282
:10081000CB6AC3620B6B03634B6B43638B6B83636A
:10082000CB6BC36340304031403ADBD230320BD324
:100830000B6803604B6843608B688360CB68C36060
:1008400010301031103AF3D20C3205D351F8043B7A
:1008500040F8043B043AF9D2043208D0D2071CBF56
:1008600011F8013B00F8013B01D30B88038060467F
:10087000704700BF082A13D38B07B1D010F00303D1
:10088000AED0C3F10403D21ADB071CBF11F8013B41
:1008900000F8013BA4D331F8023B20F8023B9FE76C
:1008A000043AD9D3013A11F8013B00F8013BF9D2DF
:1008B0000B7803704B7843708B7883706046704779
:1008C000704700BF704700BFF8B50C46234F06467F
:1008D000FFF7F6FFBB68C4F57E615D680F3125F058
:1008E0000305294421F47F6121F00F01A1F5805413
:1008F000B4F5805F07DB0021304602F059FABB688F
:100900002B44984204D03046FFF7DCFF0020F8BDAE
:100910006142304602F04CFA01300DD0104BBA68FB
:1009200019682D1B45F001053046091B55601960FB
:10093000FFF7C8FF0120F8BD0021304602F038FA69
:10094000BA68831A0F2BDEDD064943F001030C68F9
:100950000349001B53600860D5E700BF0008002072
:100960004C100020080C002000295ED0F8B50F467E
:100970000646FFF7A5FF57F804CC754DA7F1080010
:100980002CF00103C218A9685468914224F00304B2
:1009900000F084801CF0010F546002EB040133D19D
:1009A00057F808EC4968A0EB0E00876805F1080CC1
:1009B0006745734401F0010160D0D0F80CE0C7F83E
:1009C0000CE0CEF80870002900F08D8043F00101A2
:1009D00041601360B3F5007F30D20122DB086C6800
:1009E000991013448A40224305EBC30155F8334064
:1009F0000839C0E902416A6045F83300E0603046DA
:100A0000BDE8F840FFF75EBF4968C9070ED423442C
:100A100005F1080C916843F0010461456BD0D26880
:100A2000CA6091604460C350D4E7704743F001014D
:100A3000B3F5007F47F8041C1360CED35A0A042A8A
:100A400046D89A0902F13907FF0002F13801EC1982
:100A5000EA59083C944255D0516821F0030199426B
:100A600002D992689442F7D1D468C0E90224A06008
:100A7000D0603046BDE8F840FFF724BF002962D1BE
:100A8000D2E90221234443F00104D1608A6044602A
:100A9000C3503046BDE8F840FFF714BF1CF0010F0B
:100AA000234407D157F8084C001BD0E90212234415
:100AB000CA609160274A43F00101126841609A427E
:100AC000A8609CD8244B30461968FFF7FDFE96E7D6
:100AD000142A0AD9542A1DD81A0B02F16F07FF00F5
:100AE00002F16E01B3E7234494E702F15C07FF00D3
:100AF00002F15B01ABE7C5E90400C0E902CC446048
:100B0000C3507CE701276B68891007FA01F119438C
:100B10006960AAE7B2F5AA7F06D8DA0B02F1780776
:100B2000FF0002F1770192E740F254518A4206D861
:100B30009A0C02F17D07FF0002F17C0187E74FF478
:100B40007E777E2183E743F001014160136056E721
:100B5000000800200C0C00204810002000000000BD
:100B600030B40024064B0749DB68074A5D68074834
:100B70002943596059680A435A60046130BC704780
:100B80007C10002023016745AB89EFCD0020024097
:100B9000FEE700BF000000000000000000000000B1
:100BA000202330B483F311880B4B4942D3E900452D
:100BB000281A0840821AA24207D3954205D35A60E8
:100BC000002383F3118830BC70470020002383F397
:100BD000118830BC704700BFF817002000000000EB
:100BE000024AD36843F0C003D36070470038014025
:100BF000022906D0032906D00129074818BF002082
:100C0000704706487047032A03D8054800EBC20026
:100C100070470020704700BFB037000864370008F5
:100C2000383800080000000000000000000000004C
:100C3000202383F311880D4B5B6813F4006302D10A
:100C400083F311887047EFF309834FF08072203BE4
:100C5000DA6183F30988064A1168D2688968926864
:100C600091428CBF034A044A9A61704700ED00E04C
:100C70002816002063020008660200080000000039
:100C8000084B10B4D3E900424942101A0840A04270
:100C900004D3824202D310BC58607047002010BCBD
:100CA000704700BFF817002000000000000000009F
:100CB0000E4A0F4B91685B6882685B1A9B1AC26888
:100CC00030B4D0E9044541680132E418C0E9023289
:100CD000026845F100058B4288BF43609342C0E93A
:100CE000044530BC38BF0360704700BF00180020C7
:100CF000001000E000000000000000000000000004
:100D0000014B5B6883607047001000E0000000004A
:100D100000EB8100C36830B45A691B8A14681A4812
:100D2000A34228BF2346D360046D0D0104F1804423
:100D300004F5C04490682A5904EB0114636083B140
:100D40005C1E02F1005224F0010402F5405202340C
:100D50005200044430F8025B0432844242F8045CDE
:100D6000F8D130BC890001F1804303F5B8431A681B
:100D700022F4F04222F0400282F0300242F40042BB
:100D800042F080021A607047005C004000000000E2
:100D900000EB8100C26810B490690368CBB1548A3B
:100DA0001A19013AB2FBF4F292B2890001F18041C2
:100DB00001F5B8410B6810BC23F4904323F0700395
:100DC00083F4405343F4004343F0800382810B607B
:100DD00070470122E9E700BF0000000000000000AA
:100DE00000EB8103F0B4DE68336803F00303032BE8
:100DF00055D14FF4C063324A7469126D4FEA011C39
:100E000002F1804202F5C04202EB011574B10027E5
:100E1000348A6F60D0F88470013424F001043C44BB
:100E2000C0F8844043F020034CF80270B269AAB1C4
:100E3000728A3E2A39D8541E44F0010401346402F7
:100E400004F47C44EC60D0F88440013222F00102CA
:100E50002244C0F8842043F40053AC608A0002F1BD
:100E6000804202F5B84210684404106848BF43F459
:100E70008043400648F2800047F6700448BF43F0C4
:100E80004003194321F4784121F0F001014311603E
:100E9000116823404B4003431360F0BC7047002BA4
:100EA0000CBF4FF400730023A5E7561E46F01F0643
:100EB000044C0136761144EA8624A4B2C2E700BF8E
:100EC000005C00400080FFFF000000000000000008
:100ED00000214268F0B4D26880278A420CBF4FF4E8
:100EE0001C464FF41E464025054A064C11655164C8
:100EF000D7641664C0F88450C460F0BCFFF770BFBC
:100F0000005C00405C3600080000000000000000AB
:100F10000279052A01D000207047C2680346D068D4
:100F200010F0010003D0012051B10860704710B4E7
:100F30000224116921F0360111611C7110BC704747
:100F4000704700BF0000000000000000000000002B
:100F500007207047000000000000000000000000B3
:100F60008446007905284CD0F0B51F200424DCF815
:100F70000C608CF80440F060306983B040F00100F0
:100F8000306182B34FF6FF701D4621F00107ADF8C6
:100F9000040007F1006701F0010415F8013B0DF1B1
:100FA000080E74440131013A04F8043C2B4601F068
:100FB000010402D011F0010FEFD1BDF804503D80C3
:100FC000F468E407FCD4F46804F01F0E14F0100F6A
:100FD000C6F80CE009D1640711D43C88A4B2A5423C
:100FE0000DD1002AD0D1002000E006200222336972
:100FF00023F0010333618CF8042003B0F0BD03201B
:10100000F4E70120704700BF00000000000000006E
:101010000048704740360008000000000000000053
:1010200038B590F864300446152B16D8DFE803F085
:10103000161515151515161515161616151515155B
:10104000151515150B35C3689B695B682BB9036FC4
:1010500003B19847002384F8643038BD48F280001B
:10106000194963680A681D6822F4F04222F04002C0
:1010700082F0100202430A600B6823F4904323F0CD
:10108000700383F4805303430B6015B1062120469F
:10109000A847062384F8643038BD0B22202380F84B
:1010A000642083F311880025C36802895B6942F0DC
:1010B000010202812946C3E900559D60FFF728FE21
:1010C00085F3118838BD00BF005C004000000000BF
:1010D00038B590F864300446152B2AD8DFE803F0C1
:1010E0000B29292929290B29292A3A512929292972
:1010F000292929290B0B48F28000304963680A68C6
:101100001D6822F4F04222F0400282F010020243F5
:101110000A600B6823F4904323F0700383F4805338
:1011200003430B6015B106212046A847062384F827
:10113000643038BD90F87B2090F87A30C16E43EA75
:101140000223994206D2C3681B8AB1FBF3F503FB65
:101150001515EDB11422202384F8642083F311883F
:101160000025E36862899B6942F0010262812046A2
:101170002946C3E900559D60FFF70AFE85F31188F3
:1011800038BD036F03B19847002384F8643038BD3D
:10119000202383F31188C36802895B6942F001024E
:1011A00002812946C3E900559D60FFF7B1FD85F333
:1011B00011880A2384F8643038BD00BF005C004009
:1011C00070B590F86430044613B1002380F86430A1
:1011D000B14B04F174001B6D03F1804303F5C04370
:1011E00003EB01139B6803F1005303F540535B00CD
:1011F00003F1100219680433934220F8021BF9D15D
:1012000063689B686BB32046984750B3E36E94F8CD
:10121000740094F87B1094F87A2042EA01229A42F2
:101220003CBF1346E266020600F1EC80002B00F0A2
:101230009A801522202384F8642083F311880025E6
:10124000D4E91A61E36862899B6942F00102628114
:10125000204683E862002946FFF79AFD85F311884E
:1012600070BD94F8740010F060051CD140F2023299
:1012700094F8751000F07F0343EA0123934200F0D5
:1012800084814FD8B3F5807F00F03D812AD9B3F532
:10129000817F00F04781B3F5407F04D194F8763028
:1012A000012B00F0EF8048F280007B4963680A68F8
:1012B0001D6822F4F04222F0400282F01002024344
:1012C0000A600B6823F4904323F0700383F4805387
:1012D00003430B6015B106212046A847062384F876
:1012E000643070BD012B64D0022B53D194F9781077
:1012F00094F878200029684902F00F0251F8222062
:10130000C0F2B08012F44052CDD0B2F5805F4FF001
:1013100002054FF0000100F0B080604AC4E91B51A3
:10132000A26676E7B3F5006F00F0288148D9B3F5DF
:10133000106F39D12378042B00F0B68094F8763002
:101340004BB10421626884F87F302170136813B1B7
:101350000221204698470023C4E91A3394F8740008
:101360002367030667D40B22202384F8642083F3C9
:1013700011880025E36822895B6942F0010222811D
:1013800020462946C3E900559D60FFF7C1FC85F35F
:10139000118870BD002B86D1022204F17C01C4E9C2
:1013A0001B23A166134634E740F6024293427FF4C2
:1013B0007AAF022300213A4AC4E91B31A26628E72A
:1013C000B3F5A06F00F0D580A3F5C063012B3FF605
:1013D0006AAF94F87910626894F87830566843EAF6
:1013E0000123204694F8762094F87710B04700281F
:1013F0003FF459AFD0E9003294F87400C4E91A23DD
:10140000256706E7BBB10922202384F8642083F313
:1014100011880025D4E91A61E36822895B6942F0EA
:1014200001022281204683E862002946FFF770FC12
:1014300085F3118870BD1422202384F8642083F37F
:1014400011880025E36862899B6942F0010262818C
:1014500020462946C3E900559D60FFF799FC85F3B6
:10146000118870BD12F030023FF41DAF102A4FF00A
:1014700002054FF000017FF450AF0A4AC4E91B5146
:10148000A266C6E6B4F87C30C4E91B5543F00203FB
:10149000A566A4F87C3064E7005C004010360008C4
:1014A000C8380008C8360008202383F3118840217B
:1014B000012248F28000A368C4E90555C4E9075534
:1014C000C4E9095503F001132561A360C4F8841031
:1014D000930003F1804303F5B843196801320143D7
:1014E000082A19601860F3D1002383F311880321BF
:1014F000626884F87F3021701368002B3FF41EAFC0
:10150000204698471AE794F87630012B7FF4CBAE4B
:10151000B4F87C30C4E91B5523F00203A566A4F897
:101520007C301EE794F87630002B7FF4BCAE94F844
:10153000782012F00F0317D09B0003F1804303F5CE
:10154000B84312F0800F1A683ED102F44052B2F54F
:10155000405F09D01A6822F4F04222F0400242F4BF
:10156000204242F080021A600023C4E91A33236744
:10157000F7E6244BC4E91A552367F2E6012304F188
:101580007F02C4E91B35A26643E694F87630002B4F
:101590007FF489AE94F8782012F00F03E4D09B001A
:1015A00003F1804303F5B84312F0800F1A681CD191
:1015B00022F4904222F0700282F4805242F40042FF
:1015C00042F080021A60CFE702F03002302ACBD01E
:1015D0001A6822F4F04222F0400282F0200242F423
:1015E000004242F080021A60BEE722F4F04222F08C
:1015F000400282F0100242F4004242F080021A607F
:10160000B2E700BF41160008000000000000000023
:10161000F0B50125002700EB810CDCF80CE0B0F8F8
:1016200008C0DEF814608D4045EA0C050581C6E966
:101630000037B260BDE8F040FFF76ABB0000000071
:1016400090F87630426880F87E300649126843F0A0
:10165000800310B50446CB640AB1012190470323EF
:10166000237010BD005C004000000000000000007E
:10167000704700BF000000000000000000000000F4
:1016800090F87420034602F06002202A01D0002066
:10169000704790F87520212A09D81F2AF7D907200A
:1016A0000021074AC3E91B019A6601207047222ADC
:1016B000EDD100220120C3E91A221A67704700BF4A
:1016C00040100020000000000000000000000000AA
:1016D0000020704700000000000000000000000033
:1016E0000020704700000000000000000000000023
:1016F000F8B5D0F88C140A681378042B02D1037A59
:10170000022B01D00120F8BD01234979558903FA44
:1017100001F42C42A7B2F5D1D0E90764A64211D05A
:101720004FF4807C002402EB8103DB683D439B691E
:10173000043655811046C3E900C49E60FFF728FBBC
:101740002046F8BD80690028EAD0DBE700000000F1
:10175000406BFFF7CDBF00BF00000000000000009D
:10176000036810B55B680C469847C36813B153F81B
:10177000340010BD006900FB04F010BD0000000043
:101780000379052B13D010B50446FFF7E9FF00F1EC
:1017900000610B1F01F57F7101E08B4209D053F806
:1017A000042F0132F9D002232371052010BD01203E
:1017B000704702232371002010BD00BF000000000D
:1017C00038B50379052B15D005251F22C36805718F
:1017D000DA601A69044642F002021A61FFF7C0FF9C
:1017E000E36800F1006058611A69002042F040028D
:1017F0001A6138BD012038BD000000000000000063
:101800000346D0E90420824203D050F8043B0B6029
:101810007047DB68002BF8D0002070470000000004
:1018200010B5446B82B0D4F88C241368197804295D
:1018300002D1217A022901D002B010BD0121107914
:101840001A8901FA00F31342F6D101A904F1440008
:10185000FFF7D6FFD4F88C34024619791868019B3B
:10186000FFF7D6FEE8E700BF000000000000000020
:1018700010B5202382B083F311881F4CD4F88C2438
:1018800013681978042902D1217A022904D000238F
:1018900083F3118802B010BD012110791A8901FA71
:1018A00000F31342F3D1D4E915329342EFD1226D04
:1018B000002AECD0E26E002AE9D0043AD21AE6D02F
:1018C0001A60D4E9171003448B42636528BFA36EE6
:1018D000226D28BF63650023013A01A907482265EC
:1018E000E366FFF78DFFD4F88C3402461979186847
:1018F000019BFFF78DFECAE70C110020501100205C
:10190000202383F3118891F82430072B0DD8DFE8CA
:1019100003F0270C0C2308040C088A6A936801332F
:101920009360D1E9003213605A60002210B44FF086
:10193000FF348B6988688C6281F824201B689A6860
:101940008242FBD25A680020C1E90032116059601E
:1019500080F3118810BC704700228B6A1A60E4E79C
:10196000002383F31188704700000000000000008E
:1019700000228369816880F824201B689A688A4263
:10198000FBD25A68C0E9003210605860704700BF4F
:1019900038B50446006884420AD06FF00105036838
:1019A00023605C608562FFF7E3FF2068A042F6D108
:1019B00038BD00BF00000000000000000000000073
:1019C00003460068834206D0002102681A60536013
:1019D0008162FFF7CDBF70470000000000000000EB
:1019E000F8B50468A04221D007460D46002604E061
:1019F0000B2A1CD02468A74218D0E3682B43E3606D
:101A000015B123691D42F5D0D4E90103816B90F82B
:101A100024200B430A2A8363EAD1826A1342E9D065
:101A20008662FFF7A5FF2468A742E6D1F8BD826A67
:101A300032EA0303DED1F3E70000000000000000FB
:101A4000113138B550F8214094B1202383F3118827
:101A5000D4F88C241368527903EB8203DB689B690A
:101A60005D6835B92046FFF743FE002383F31188F4
:101A700038BD04216018FFF7B3FFE369616A1D6098
:101A8000A06AA26903448B42E36128BF236B02F181
:101A90000102A26104F10C0028BFE361FFF790FF8F
:101AA000E0E700BF000000000000000000000000B0
:101AB0002DE9F04100EB81039E6A82B0F6B1044645
:101AC0000D46202383F311880821301D04EB850780
:101AD000FFF786FFFB685B691B6893B906F1440852
:101AE000404601A9FFF78CFE024620B32946204656
:101AF000019BFFF78DFD002383F3118802B0BDE841
:101B0000F081B36DD6E9172003449342316DB3657C
:101B100028BFB36E01F1010106F14408404631656A
:101B200028BFB365FFF74CFF404601A9FFF768FEE9
:101B300002460028DAD1FB685A691268002ADAD016
:101B40001B8A013B1340D6D12946204604F174027A
:101B5000FFF75EFDCFE700BF0000000000000000BF
:101B600030B40125074BD9681A6881F8240014683D
:101B70001046636082F824501C6030BCDA60FEF7C7
:101B80005FBB00BF2816002000000000000000001E
:101B90002DE9F0414E4C4B1CE76886B051D02646EB
:101BA0004FF0000E84464FF0804056F8102FCDF8CD
:101BB00014E0436A474DB24204979BB2039567D045
:101BC000B4F81CE09568A3EB0E039BB2CB1838BFAA
:101BD00019468D4210D94FF6FF738B4228BF0B4632
:101BE000022B2CBF73440EF102038D429BB2436360
:101BF00004D21268491B95688D42FAD30291D2E94A
:101C000001354FF0FF30691A6D46CDE900231D60A4
:101C1000C2E90151A0616046FFF7A2FF009B63B1DA
:101C20002269AA4213D0DDE901154FF0FF309A680E
:101C30000B602A44C3E90112A061B86A06B0BDE88E
:101C4000F081FFF78DFFB86A06B0BDE8F081002192
:101C500023615E6022690091B24234D04FF080402F
:101C60009368029DA18B2B449360426A521A92B2F0
:101C70009342E2D9981A012823D94FF6FF72934272
:101C800028BF13464FF080420B449BB25363D4E706
:101C90004FF6FF728A4228BF0A46022A2CBF9A18C2
:101CA0009A1C6D464FF0020892B2CDE9006602918F
:101CB000A38342636561C0F810E02561C0F80C8021
:101CC000A9E7931CDEE74FF08043D960B5E700BF7A
:101CD0002816002001190008000000000000000084
:101CE000084AD26851B1034610B44468C2E90004FE
:101CF0002260042010BC5A60FFF74ABF4FF0FF304B
:101D0000704700BF281600200000000000000000FF
:101D1000F8B504460F461646202383F3118805E0E4
:101D200031462046FFF7DCFF002817DBA568002DB1
:101D3000F6D06269A368511C013B6161A360177012
:101D4000D4E904329A4224BFE3686361E3690BB1CA
:101D500020469847002080F31188F8BD85F311884C
:101D6000F8BD00BF000000000000000000000000FF
:101D70003030FFF7CDBF00BF0000000000000000C2
:101D80004FF0FF323030FFF7C3BF00BF000000004C
:101D900070B5202305460E4683F3118805E03146D1
:101DA0002846FFF79DFF002818DBAC68002CF6D012
:101DB000A969AB6828694A1C013B8242AB6028BF15
:101DC000EB68AA610C7828BFAB61EB690BB12846C0
:101DD0009847002383F31188204670BD84F311884F
:101DE00070BD00BF00000000000000000000000007
:101DF0000C30FFF7CDBF00BF000000000000000066
:101E00004FF0FF310C30FFF7C3BF00BF00000000F0
:101E100038B504460D4607E0237A83B929462046A3
:101E2000FFF75EFF002809DBE368002BF4D00020F9
:101E30002369E1691A1D0B44C4E90A2338BD6FF018
:101E4000010038BD0000000000000000000000009C
:101E500070B520230D46044683F31188866A06B3C5
:101E60003570D4E90A3201339342A36215D3E26993
:101E70002369043A1A60E268E069013AE2600022EC
:101E8000A16903448B42236128BF636AA26228BF11
:101E90002361236B0BB120469847002080F3118803
:101EA00070BD1146FFF7B4FF08B9A66AD8E786F3FC
:101EB000118870BD0000000000000000000000005C
:101EC0004430FFF7C5BF00BF000000000000000065
:101ED0004FF0FF324430FFF7BBBF00BF00000000EF
:101EE00038B504460D4607E0237A83B929462046D3
:101EF000FFF7F6FE002809DBE368002BF4D0002092
:101F000063691A6804331A44C4E90A3238BD6FF0B1
:101F1000010038BD000000000000000000000000CB
:101F200070B52023044683F31188856AEDB115F856
:101F3000016BE26AA562954212D3D4E90610E26809
:101F40006369013AE260002203448B42636128BF67
:101F5000636AA26228BF6361236B0BB12046984776
:101F6000002383F31188304670BDFFF7B9FF0646A2
:101F700008B9A56ADBE785F31188F4E700000000E3
:101F80000C30FFF7CDBF00BF0000000000000000D4
:101F90004FF0FF310C30FFF7C3BF00BF000000005F
:101FA00008B50146202383F311880820FFF7F0FDD0
:101FB000002383F3118808BD00000000000000002A
:101FC0004FF400552E4608B5074B084ADB68084C0D
:101FD000DA614FF4FA606661FFF7E2FF4FF4FA60EE
:101FE0002561FFF7DDFFF4E728160020F43500082F
:101FF0000010014000000000000000000000000090
:10200000536910B400EB8104E26023B100241C602A
:102010005C609C60DC60936923B100221A605A60A6
:102020009A60DA6010BCFEF7DBBE00BF0000000063
:1020300070B505291ED8DFE801F0031D2D03031E2E
:10204000202383F311882C4C237D13B194F84C305A
:102050006BB9012502212948FFF7C2FC28482575E4
:10206000FFF796FC274884F84C50FFF791FC0023BB
:1020700083F3118870BD202383F311881E4C012146
:10208000201DFFF7ADFC0023237584F84C3083F34B
:10209000118870BD0546202383F311880026164C55
:1020A0000121194AFFF7ACFF02212846174AFFF722
:1020B000A7FF236B04F10C00C4E90733C4E90D66E4
:1020C000A661FFF765FCD4E9192304F14400C4E9D3
:1020D00015332265C4E91B662675FFF759FC0121FB
:1020E000201D84F84C60FFF77BFC2046FFF700FBC7
:1020F00086F3118870BD00BF0C1100201011002064
:10210000181100205011002080360008A436000865
:1021100070B50579052D0ED0044603261F251846F7
:10212000E368267101F10061DD60FEF753FB0223D5
:102130002371002070BD012070BD00BF00000000B1
:102140002DE9F04F85B04FF02009CDE90232C76983
:1021500089F31188AAB304460E464FF0000ADDF851
:102160000CB0A268934598BF5D46D4E9042088BFAF
:10217000A568A2EB0008A84544D829D2A5EB08031E
:10218000424631460193FEF725FB06EB0801DDF8D8
:102190000480E0684246FEF71DFB4346A268E16802
:1021A000521BCB186361A2600FB12046B8478AF377
:1021B0001188ABEB050B2E4489F31188BBF1000F9E
:1021C000CFD10023039883F3118805B0BDE8F08FC9
:1021D0002A463146FEF7FEFAE2686261A268521BA7
:1021E000A260002DE0D120460299FFF779FD00287A
:1021F000B7D0039BA3EB0B00002383F3118805B03A
:10220000BDE8F08F2A463146FEF7E4FA62692A44B7
:102210006261E3E700000000000000000000000031
:102220003030FFF78DBF00BF00000000000000004D
:102230004FF0FF333030FFF783BF00BF00000000D6
:102240002DE9F04F85B04FF02009CDE90232C76982
:1022500089F31188002A35D004460E464FF0000A53
:10226000DDF80CB0A268A169934598BF5D4622696C
:1022700088BFA568A2EB0108A84544D829D2A5EBE0
:102280000803424630460193FEF7A4FA06EB080025
:10229000DDF80480E1684246FEF79CFA4346A268F6
:1022A000E168521BCB18A361A2600FB12046B8476A
:1022B0008AF31188ABEB050B2E4489F31188BBF12F
:1022C000000FCFD10023039883F3118805B0BDE838
:1022D000F08F2A463046FEF77DFAE268A261A268D6
:1022E000521BA260002DE0D120460299FFF7F8FCB6
:1022F0000028B7D0039BA3EB0B00002383F31188C6
:1023000005B0BDE8F08F2A463046FEF763FAA269B1
:102310002A44A261E3E700BF0000000000000000C3
:102320000C30FFF78DBF00BF000000000000000070
:102330004FF0FF330C30FFF783BF00BF00000000F9
:102340002DE9F04F05460C46924699464FF020087D
:1023500083B088F311880026AB6A3746002B42D041
:10236000E96AAAEB060BCA1A934528BF9346BBF14C
:10237000400F41D92146184604F1400ED1F800C063
:102380004C688A68CB6810317145C0F800C0446061
:102390008260C36000F11000F0D10C46AB6A403699
:1023A0004033AB62EA6A9A4214D8EA692B69043A6C
:1023B0001A60E869AA69034493422B6128BF6B6ADB
:1023C000E96828BF2B612B6B0139E960AF620BB163
:1023D0002846984787F3118856451AD288F3118802
:1023E000AB6A002BBCD1494628460193FFF710FD8C
:1023F000019B60B9AB6AB3E7184621465A46FEF71F
:10240000E9F9AB6A5E445B445C44AB62CAE783F3C0
:102410001188304603B0BDE8F08F00BF0000000017
:102420004430FFF78DBF00BF000000000000000037
:102430004FF0FF334430FFF783BF00BF00000000C0
:102440002DE9F04F83B005460F4693464FF0200923
:10245000019389F311880026AC6AB046002C41D064
:10246000EB6AABEB06021B1B9A4228BF1A46402AB6
:10247000924621463DD93B4604F1400ED1F800C0BA
:102480004C688868CA6810317145C3F800C05C6048
:102490009860DA6003F11003F0D1AB6A4037403343
:1024A0004036AB62EA6A9A4213D8D5E906216B69D5
:1024B000E8680B4493426B6128BF6B6A00F1FF3000
:1024C00028BF6B612B6BE860C5F828800BB12846EC
:1024D000984788F311885E4516D289F31188AC6A53
:1024E000002CBDD128460199FFF7FAFC50B9AC6A1F
:1024F000B6E73846FEF76EF9AB6A56445344574484
:10250000AB62CFE784F31188304603B0BDE8F08FAB
:102510000C30FFF795BF00BF000000000000000076
:102520004FF0FF330C30FFF78BBF00BF00000000FF
:102530004FF0FF30C34A2DE98048136910611369D9
:10254000002300214FF4807C60244FF400764FF08C
:10255000400A4FF0800813611369D368D060D368D4
:10256000D160D368D369DFF848B343F08053D361B7
:10257000D369D3694FF0010E43F00063D361D3698F
:10258000DBF800304FF0883743EA0C03CBF800301B
:10259000AD4BAE4D83F80643C3F880A1C3F800A04D
:1025A00083F80743C3F88081C3F8008083F80843A9
:1025B000C3F880C1C3F800C083F80943C3F8806141
:1025C0001E604FF4806683F80A43C3F880611E6082
:1025D0004FF40006A94683F81743C3F880611E60D4
:1025E00083F82843C3F884C1C3F804C0946985F80C
:1025F00008E044F07D0494619269954C954AE0604E
:1026000062602760944A954CD06054601760944C87
:10261000944AE06062602760934A944CD0605760AF
:102620001460C2F80C04C2F80474C2F80074904A32
:10263000904849F8042B904A80F804E002608F4AE1
:10264000C5F80490C26005F10C02C5E9032210220E
:102650006961AA636FF03F02C5E90A152D6583F829
:10266000252305F174022A64854A86486A67864AEA
:10267000E864AA6720202022844FC3F8842179606F
:10268000586005F13000C5E90C0005F1640305F15F
:102690005402C5E90822C5E91133AA61EB61EB6375
:1026A00087B087F800E007F12C0307F1480243F8F0
:1026B000041B9A429961FAD101224FF0804348F6F7
:1026C0009F4B4FF6FF7A4FF080095E48B960D0F813
:1026D0001CC04FF080544CEA020CC0F81CC0DFF85C
:1026E000D4C1C069DCF804004FF0000840F4006079
:1026F000CCF80400C3F828B0C3F82CA09961596342
:10270000D96059605A611A604F4B4FF0FF3E83F811
:102710001C934FF000090426C3F880411C605C4BF9
:10272000CDE90489CDE90111C3E9011103911A70C2
:10273000CDF800E06846FEF7E3FA6846FEF7B8FA1F
:10274000013E534BF6D11C2114244FF0040E514A84
:10275000DFF86491DFF864A1116302F13C01DFF856
:1027600060C1C9F800A0946109F10C0A02F12404C7
:10277000D16302F14001C9E903AA5462116402F174
:10278000280402F14401C9E90166C9F8146002F1A4
:102790001009C2F81090946251643F4CC2E90022C3
:1027A0003E48DFF820A1DFF820913D499660566150
:1027B000D662C2F81CE0C2F834E0C2F820C0C2F809
:1027C00038C0009AC0E900A99A605C6020222663A4
:1027D000A16382F3118862B64FF6FF0A4FF0100929
:1027E0004FF0804E2F493048D1F80CC064600CEA9D
:1027F0000A0C4CEA00000AF1604AC860AAF60F3AD7
:10280000DAF80C00DFF8C4C040F08070CAF80C00A1
:10281000DCF800004FF0FF3B40F00100CCF8000076
:1028200081F81F9081F822200021DEF824004FF06B
:1028300001094FF0800E4FF0020A80B2C4E908018E
:102840001A4845E00010024000E100E08C10002032
:1028500000080140B488B88B000C01405888888873
:1028600000100140888858880014014044888888F6
:10287000783800087C1000205838000800200240FA
:1028800000380140E10B0008005125029C15002092
:1028900000180020B017002028160020F81700208C
:1028A0001436000800ED00E00003FA0528360008A1
:1028B00000700040002004E00C180020A10B00086C
:1028C000810C0008E819002000500020001000E0F2
:1028D000DFF8B4C304F16801A06504F1100004F14D
:1028E0002803C4E90400C4F818B0A16604F13C0B45
:1028F00004F14C0104F16C00C4E91B00C4F80CB0F5
:102900002365A162C4F844E0C4F87CE0C4E91D6614
:102910002460A6606663A6836465E665C4F8846087
:10292000A4F86090CCF8C830C34BCCF8CC100CF1B4
:102930009401CCF8C410CCF894300CF1E401BF4BF6
:10294000DFF848B30CF1C800CCF8E4100CF1E80152
:10295000CCF8D430E064E062CCE93C66CCE93A11D2
:1029600084F86290CCF89860CCF8D040CCF8D8C00D
:10297000CCF8C090CCF8F8908CF8DE900CF1B80050
:10298000CCF8B4B0ACF8DCA0FEF7F2FFAC4B83F8A7
:1029900000A086F31188AB4B4FF482701946DFF824
:1029A000F0C2DFF8F0E241F804CBDFF8ECC2C3F884
:1029B00074E0C3F83CC003F28C4CC3F85CC003F174
:1029C0000C0C03F17C0EC3E903CC596003F1440CF9
:1029D00003F521719E612022C3E90D66C3E91B66E0
:1029E000C3E907EEC3E91511C3E911CC83F80890D8
:1029F00083F81490C3F82CA083F84C90C3F850A02F
:102A0000C3F864A01B649B67C3F830E05962996601
:102A10009862186682F311888B49FB62BB643B6342
:102A200083F808A0C3F88C1486F3118882F3118808
:102A30002B7A4B4505D1854B9A6942F480429A61C5
:102A40009B694FF0400E4FF0010C42F22C10002613
:102A5000FF210222AB6FDFF84492A9FB03396B6FB1
:102A60004FEA1929C3F80890C3F810E0C3F814C05E
:102A7000D8601E6018685B6885F87C102A7286F33F
:102A800011884FF40072724B40F6B8301A61FFF7AC
:102A900087FA202383F3118897F800E06D4BBEF18D
:102AA000010FC7E90366C7E90566C7E90766C7E915
:102AB00009667B601ED14FF400204FF480114FF067
:102AC000D00CE025614BDA6942F40002DA61DB697F
:102AD000614A624BC2F840E083F813C3C3F8800137
:102AE000186083F814535E48C3F8801119601664A7
:102AF000FEF7EEF902210022397082F311884FF4BB
:102B000000755348574B456120201B6080F31188A6
:102B100080200127544B554E554DC3F8386103F5BD
:102B20008276A3F84C11C3F834615249E66AC3F8BF
:102B3000300183F84E71C3F86801C3F8045103F5FE
:102B4000AC7003F59C7503F5AA77C3F84411C3E98B
:102B50005822E168C3F84041C3F84831C3F83C61EA
:102B6000C3F824B1C3F808213560C3E95570E562A4
:102B7000C3F85C018868D3F83051C3F8502185420E
:102B800040F2FD808D6981F824202D68AA6890426A
:102B9000FBD301266A683848C1E9005211606960B8
:102BA00083F84C61E060FDF74BFB002383F3118851
:102BB000FDF7D6FF7F221F20304B31491C79DB689F
:102BC000120640F1C88000251A692E4C42F080029E
:102BD0002A4F1A6104F124064FF0FF312046FFF717
:102BE000D7F810F0FF00F7D08D2859D0FF28F3D187
:102BF0000120FDF73BFB8146CDB14FF4FE3805F1D6
:102C0000FF3A1FFA8AFA0AF1011A0AF57C4A0122F0
:102C100041464B4638469044FFF77AFA4FF0FF3270
:102C2000304699F80010FFF773F8D045EFD14846C9
:102C3000FDF724FBD0E700BF910B0008FC3500082E
:102C4000001800200C1100204C3700080010024032
:102C5000000C014054370008005C004000E100E037
:102C60009C150020701800207818002050160020B5
:102C7000C11F000804360008A01900207C100020A5
:102C800000FC010898100020B01600205102000836
:102C9000A03800082118000851170008B5814E1B04
:102CA0004FF0FF312046FFF773F810F0FF0893D084
:102CB00008F10100FDF7DAFA4FF0000A8146D34629
:102CC0004FF0FF312046FFF763F80AF1010A09F8D7
:102CD0000B005FFA8AFBD845F2D24FF0FF31204655
:102CE000FFF756F88F28A2D1002209F1FF3009EB37
:102CF000080C082110F8013F5A40530012F0800FD1
:102D000083F0310314BFDAB2520001F1FF3308BF80
:102D1000D2B213F0FF01F0D16045EAD1002A86D18A
:102D2000FDF71EFF4B46424605F5FE313846FEF7DD
:102D300017F91B4B4FF0FF32D96830460B694544F9
:102D400043F080030B619021FEF7E2FF4846ADB2ED
:102D5000FDF794FA40E7052C4FF080023FF430AFC6
:102D6000D8601A6942F002021A6159611A6942F088
:102D700040021A61DD688022ED07FBD420E7094993
:102D800083F84C2109688A689542FBD9C3F8281159
:102D90004868054AC3F82C0102604A6005E700BF95
:102DA0007C10002028160020A01900200000000040
:102DB0000246202310B483F311880C4BD3E900049E
:102DC0000144A14208D8884206D81960002383F341
:102DD000118820B110BC7047002383F311880C23A5
:102DE0004FF0FF3010BC1360704700BFF817002091
:102DF000EFF30983203383F30988002383F31188D9
:102E0000704700BF0000000000000000000000004C
:102E100038B5202383F31188124BDC68E36A04F190
:102E20002C059D42A06207D194F8263083B1BDE8FD
:102E300038400F20FEF794BE1A681846E262FEF78B
:102E400097FDE36AAB42F7D194F82630002BEED120
:102E500094F825309B07EAD1D4E9043213605A6014
:102E6000E5E700BF28160020000000000000000079
:102E7000012330B400250C4A1068D16804686260F0
:102E800080F824308B69146081F824508C68D060FD
:102E90001B689A68A242FBD830BC5A68C1E900326C
:102EA00011605960FDF7CCB9281600200000000021
:102EB0001B4A1346116841F0010111601A6891071D
:102EC000FCD500201968164A01F0F9011960586014
:102ED000536813F00C0FFBD11168114B41F4803192
:102EE00011601A689203FCD559680D4A41F4E81143
:102EF0005960196841F08071196013689B01FCD515
:102F00001221084B0848506019605368044943F087
:102F1000020353604B6803F00C03082BFAD170478F
:102F2000001002400020024000641D00000000006C
:102F30002DE9F04FC34B85B05D6C6F0500F1478103
:102F40002E0500F12881EC0408D5BE4B9A6C1004C4
:102F500040F161816FF48052BA4B5A64A9050BD5D8
:102F6000DFF8E492D9F80430DB680BB148469847A3
:102F70006FF40072B34B5A642A047CD5DFF8C89210
:102F8000DFF8C0A2CB4605F00F05AC0004F1804489
:102F900004F5B844D4F80080AE1C09EB860318F0A1
:102FA000800F5F684ED0D7F814C02268DCF8043078
:102FB000DCF80C10DCF8000022F478420B4422F01C
:102FC000F00242F40042C01A2260CCF8043057D01C
:102FD0003A8A2B01904228BF1046CCF80C00DAF850
:102FE000502002F1804E0EF5C04E5EF80330DCF842
:102FF000082003F100530A440EEB051E03F540536D
:10300000CCF808205900CEF8040078B10138400807
:103010000B1D03EB8000864600E004338C4632F83B
:10302000020B73451946CCF80000F6D1236823F44F
:10303000F04323F0400383F0300343F4004343F0B4
:103040008003236018F4004F11D0236818F4006F38
:1030500023F4784323F0F00343F0800323601ED071
:1030600009EB86067368294658465B689847DAF884
:1030700044502B0487D405B0BDE8F04FFDF7D8BD10
:103080000121B9F80830BA68A94023EA0103A9F878
:103090000830002AD6D0294658469047D2E740F259
:1030A000FE32DAF85030D7F818C003F1804303F548
:1030B000C04303EB05139968D86801F1005303F589
:1030C0004053DCF808105B00104202900093C0F3FC
:1030D0000908019100F0B380DDF800E0A8F10203D7
:1030E000580872460EF1040E03900EEB800E8B1CF6
:1030F00011680432080A724503F8021C03F8010C37
:1031000003F10203F4D1039B009A013302EB830223
:103110000092019A02EB43030193029B03F0010327
:103120001BB1009B019A1B681370BCF80C007F8ACE
:10313000DCF800200138DCE9011380B2434441444B
:10314000A2EB08024745CCE90113ACF80C00CCF81F
:10315000002000D890B9012209EB86067168B9F801
:103160000A30AA40CC6823EA0203A9F80A30002CEE
:103170003FF47DAF29465846A04778E7236823F4FB
:10318000904323F0700383F4405343F4004343F02F
:10319000800323606BE76FF400600521294BDFF8A3
:1031A000A8901A6C42F008021A64586499F800203A
:1031B000D9F8043089F8802089F800101B6813B111
:1031C0000421484698470023C9F80830BBE66FF44D
:1031D000806100240222DFF8709059644846C9E9F2
:1031E0000244C9E90444C9E90644C9E9084489F824
:1031F0000020C9F87C40C9F8284089F86440FDF7F0
:1032000067FED9F804301B68002B3FF499AE2146C5
:103210004846984794E61A6CDFF82C9022F0080292
:103220001A6499F88020D9F8043089F800201B68C6
:10323000002B3FF48FAE4846052198478AE6434667
:103240006EE700BF005C00409C15002000000000FD
:103250002DE9F047624C666FD6F80C803368DA05CA
:103260009DB276D4202383F3118815F02F0F44D01C
:103270005C4F07F1080908E0A806D6F804A01ED4A0
:10328000336813F02F0F9DB237D02B07F4D015F011
:10329000080F0CBF00218021E80748BF41F0200142
:1032A000AA0748BF41F040016B07384648BF41F4C8
:1032B0008071FEF795FBA806D6F804A0E0D56369F7
:1032C00094F87C50A3B3D4E90832934238D06269B1
:1032D000591C013205EA0A05626121621D70D4E9B8
:1032E00007329A4201D3A36923624846FEF768FB7E
:1032F000336813F02F0F9DB2C7D1002383F31188D9
:1033000018F0800F01D02A0632D418F0400F0BD0ED
:103310006B0609D5202383F31188D4E911239A423F
:1033200043D0002383F31188BDE8F047FDF780BC4C
:1033300004213846FEF754FBD4E908329342C6D143
:103340006269002AC3D04FF480613846FEF748FB1B
:1033500096E7202383F311884FF40071201DFEF7B8
:103360003FFB6FF480720023326083F3118879E7AA
:10337000202383F31188D4E911239A4222D0A26B2F
:10338000206C591C0132A263A16481421F7801D3D1
:10339000E36BA3641448FEF713FB7760002383F309
:1033A000118818F0400FBFD0B2E7A36B002BB8D044
:1033B00010210C48FEF714FB4FF6BF7308EA030315
:1033C000F360AEE7A26B002AD9D008210548FEF7CA
:1033D00007FB4FF67F7308EA0303F360DEE700BFE5
:1033E0008C10002090100020BC1000200000000075
:1033F0002DE9F0474FF080452B69EA681340DAB2B7
:10340000D2439B072A6103D4BDE8F047FDF710BC07
:10341000202383F3118800274E4E06F110084FF049
:10342000200A696AB6F81CC0D6F8109089B2D9F89B
:103430000830A1EB0C0080B20CEB03049842A4B25C
:103440003ED3D9E90032B48313605A60C9F80070E2
:103450003369434508BFEF6087F311884846D9E9CF
:10346000033198478AF31188D9F814000028D8D07E
:103470006A6A1FFA82FCACEB040292B2904243D318
:10348000801A3169414545D0131828BF03468A6820
:103490009A4204D209689B1A8A689A42FAD34FF07A
:1034A000FF30C9F808308A68C9F80010D31A4A6892
:1034B000C9F80420C2F80090C1E90193B061AEE7F9
:1034C000C14515D04FF6FF72181A904228BF10461A
:1034D00002282CBF0918023189B269636B6AA1EB1B
:1034E0000C01A3EB0C0C1FFA8CFC89B28C4506D89E
:1034F000002383F31188BDE8F047FDF799BB736B98
:1035000043F001037363F3E7736B002043F002039E
:103510007363B6E74FF6FF73834228BF0346022B5F
:103520002CBF63440CF102034FF0804200250224BB
:10353000A6F81CC0C9F8048031699BB2C9F808001C
:10354000C9F80010C1F80490C6F8109053631561D3
:10355000D460CDE728160020000000000000000025
:10356000F0B40026134F144D1448154B154907F1BC
:10357000700C984211D91A46043951F8044F42F898
:10358000044B9042F9D8421ED21A22F003020432B0
:1035900013449D4203D943F8046B9D42FBD8674511
:1035A00005D0D7E90413D7E906051037E1E7F0BCE9
:1035B000704700BFCC360008E8190020E819002049
:1035C000E81900201441000800000000000000007D
:1035D000FEE700BF00000000000000000000000047
:1035E000704700BF00000000000000000000000065
:0435F000704700BF61
:1035F400626C696E6B65720069646C650000000042
:103604006E6F6E616D6500006330000000000000A5
:103614000C3600080000000000000000B016002076
:10362400B01700206D61696E001600380402480866
:103634000C10141C202425260000000003000000A8
:1036440002000000800000000000000000040000F0
:10365400000000080000020000000000C111000882
:10366400D110000821100008400040002818002054
:103674002818002001000000381800200200000073
:1036840000000000B11A0008411A00084000400080
:103694004018002050180020020000000000000024
:1036A4000300000000000000711600080000000084
:1036B400100000006018002000000000010000005D
:1036C400000000000100000014410008E819002077
:1036D400E8190020E8190020144100080000000047
:1036E4000000000000000000144100080000000079
:1036F4000000000000000000144100080000000069
:103704000000000000000000144100080000000058
:103714000000000000000000144100080000000048
:103724000000000000000000144100080000000038
:103734000000000000000000144100080000000028
:1037440000000000000000009C15002001010200A0
:1037540031200008F10B00088116000871180008D8
:10376400430000006C37000809024300020100C056
:1037740032090400000102020100052400100105C1
:103784002401000104240202052406000107058225
:10379400030800FF09040100020A000000070501F4
:1037A40002400000070581024000000012000000F2
:1037B400B83700081201100102000040830440578A
:1037C400000201020301000004030904260353005C
:1037D40054004D006900630072006F0065006C00C6
:1037E40065006300740072006F006E00690063007E
:1037F4007300000038034300680069006200690038
:103804004F0053002F00520054002000560069005E
:1038140072007400750061006C00200043004F00CA
:103824004D00200050006F00720074000803370040
:103834003000300004000000CC37000826000000EF
:10384400D037000838000000F837000808000000EE
:103854003038000800000000111000081121000891
:10386400610F0008510F0008C1170008110F00086C
:1038740081170008000000003122000831230008ED
:10388400811D0008011E0008711D0008F11D0008BB
:103894002122000821230008D1160008000000009E
:1038A4003124000821250008D11E0008911F0008BA
:1038B400C11E0008811F00082124000811250008EA
:0838C400E116000800000000FD
:1038CC00000000000000000000080020000800209C
:1038DC00080800200808002010080020100800200C
:1038EC0018080020180800202008002020080020BC
:1038FC00280800202808002030080020300800206C
:10390C00380800203808002040080020400800201B
:10391C0048080020480800205008002050080020CB
:10392C00580800205808002060080020600800207B
:10393C00680800206808002070080020700800202B
:10394C0078080020780800208008002080080020DB
:10395C00880800208808002090080020900800208B
:10396C009808002098080020A0080020A00800203B
:10397C00A8080020A8080020B0080020B0080020EB
:10398C00B8080020B8080020C0080020C00800209B
:10399C00C8080020C8080020D0080020D00800204B
:1039AC00D8080020D8080020E0080020E0080020FB
:1039BC00E8080020E8080020F0080020F0080020AB
:1039CC00F8080020F8080020000900200009002059
:1039DC000809002008090020100900201009002007
:1039EC0018090020180900202009002020090020B7
:1039FC002809002028090020300900203009002067
:103A0C003809002038090020400900204009002016
:103A1C0048090020480900205009002050090020C6
:103A2C005809002058090020600900206009002076
:103A3C006809002068090020700900207009002026
:103A4C0078090020780900208009002080090020D6
:103A5C008809002088090020900900209009002086
:103A6C009809002098090020A0090020A009002036
:103A7C00A8090020A8090020B0090020B0090020E6
:103A8C00B8090020B8090020C0090020C009002096
:103A9C00C8090020C8090020D0090020D009002046
:103AAC00D8090020D8090020E0090020E0090020F6
:103ABC00E8090020E8090020F0090020F0090020A6
:103ACC00F8090020F8090020000A0020000A002054
:103ADC00080A0020080A0020100A0020100A002002
:103AEC00180A0020180A0020200A0020200A0020B2
:103AFC00280A0020280A0020300A0020300A002062
:103B0C00380A0020380A0020400A0020400A002011
:103B1C00480A0020480A0020500A0020500A0020C1
:103B2C00580A0020580A0020600A0020600A002071
:103B3C00680A0020680A0020700A0020700A002021
:103B4C00780A0020780A0020800A0020800A0020D1
:103B5C00880A0020880A0020900A0020900A002081
:103B6C00980A0020980A0020A00A0020A00A002031
:103B7C00A80A0020A80A0020B00A0020B00A0020E1
:103B8C00B80A0020B80A0020C00A0020C00A002091
:103B9C00C80A0020C80A0020D00A0020D00A002041
:103BAC00D80A0020D80A0020E00A0020E00A0020F1
:103BBC00E80A0020E80A0020F00A0020F00A0020A1
:103BCC00F80A0020F80A0020000B0020000B00204F
:103BDC00080B0020080B0020100B0020100B0020FD
:103BEC00180B0020180B0020200B0020200B0020AD
:103BFC00280B0020280B0020300B0020300B00205D
:103C0C00380B0020380B0020400B0020400B00200C
:103C1C00480B0020480B0020500B0020500B0020BC
:103C2C00580B0020580B0020600B0020600B00206C
:103C3C00680B0020680B0020700B0020700B00201C
:103C4C00780B0020780B0020800B0020800B0020CC
:103C5C00880B0020880B0020900B0020900B00207C
:103C6C00980B0020980B0020A00B0020A00B00202C
:103C7C00A80B0020A80B0020B00B0020B00B0020DC
:103C8C00B80B0020B80B0020C00B0020C00B00208C
:103C9C00C80B0020C80B0020D00B0020D00B00203C
:103CAC00D80B0020D80B0020E00B0020E00B0020EC
:103CBC00E80B0020E80B0020F00B0020F00B00209C
:103CCC00F80B0020F80B0020FFFFFFFF00000200A4
:103CDC00180C00200000000000000000040F002061
:103CEC006C0F0020D40F002000000000000000002A
:103CFC0000000000000000000000000000000000B8
:103D0C0000000000000000000000000000000000A7
:103D1C000000000000000000000000000000000097
:103D2C000000000000000000000000000000000087
:103D3C000000000000000000000000000000000077
:103D4C000000000000000000000000000000000067
:103D5C000000000000000000000000000000000057
:103D6C000000000000000000000000000000000047
:103D7C000000000000000000000000000000000037
:103D8C0001000000000000000E33CDAB34126DE6D4
:103D9C00ECDE05000B00000000000000000000003D
:103DAC000000000000000000000000000000000007
:103DBC0000000000000000000000000000000000F7
:103DCC0000000000000000000000000000000000E7
:103DDC0000000000000000000000000000000000D7
:08410C0000960000000008000D
:0400000508000239B4
:00000001FF
